{
  "_format": "hh-sol-artifact-1",
  "contractName": "MonToken",
  "sourceName": "contracts/MonToken.sol",
  "abi": [
    {
      "inputs": [],
      "stateMutability": "nonpayable",
      "type": "constructor"
    },
    {
      "inputs": [
        {
          "internalType": "address",
          "name": "spender",
          "type": "address"
        },
        {
          "internalType": "uint256",
          "name": "allowance",
          "type": "uint256"
        },
        {
          "internalType": "uint256",
          "name": "needed",
          "type": "uint256"
        }
      ],
      "name": "ERC20InsufficientAllowance",
      "type": "error"
    },
    {
      "inputs": [
        {
          "internalType": "address",
          "name": "sender",
          "type": "address"
        },
        {
          "internalType": "uint256",
          "name": "balance",
          "type": "uint256"
        },
        {
          "internalType": "uint256",
          "name": "needed",
          "type": "uint256"
        }
      ],
      "name": "ERC20InsufficientBalance",
      "type": "error"
    },
    {
      "inputs": [
        {
          "internalType": "address",
          "name": "approver",
          "type": "address"
        }
      ],
      "name": "ERC20InvalidApprover",
      "type": "error"
    },
    {
      "inputs": [
        {
          "internalType": "address",
          "name": "receiver",
          "type": "address"
        }
      ],
      "name": "ERC20InvalidReceiver",
      "type": "error"
    },
    {
      "inputs": [
        {
          "internalType": "address",
          "name": "sender",
          "type": "address"
        }
      ],
      "name": "ERC20InvalidSender",
      "type": "error"
    },
    {
      "inputs": [
        {
          "internalType": "address",
          "name": "spender",
          "type": "address"
        }
      ],
      "name": "ERC20InvalidSpender",
      "type": "error"
    },
    {
      "anonymous": false,
      "inputs": [
        {
          "indexed": true,
          "internalType": "address",
          "name": "owner",
          "type": "address"
        },
        {
          "indexed": true,
          "internalType": "address",
          "name": "spender",
          "type": "address"
        },
        {
          "indexed": false,
          "internalType": "uint256",
          "name": "value",
          "type": "uint256"
        }
      ],
      "name": "Approval",
      "type": "event"
    },
    {
      "anonymous": false,
      "inputs": [
        {
          "indexed": true,
          "internalType": "address",
          "name": "buyer",
          "type": "address"
        },
        {
          "indexed": false,
          "internalType": "uint256",
          "name": "ethAmount",
          "type": "uint256"
        },
        {
          "indexed": false,
          "internalType": "uint256",
          "name": "tokenAmount",
          "type": "uint256"
        }
      ],
      "name": "TokensPurchased",
      "type": "event"
    },
    {
      "anonymous": false,
      "inputs": [
        {
          "indexed": true,
          "internalType": "address",
          "name": "from",
          "type": "address"
        },
        {
          "indexed": true,
          "internalType": "address",
          "name": "to",
          "type": "address"
        },
        {
          "indexed": false,
          "internalType": "uint256",
          "name": "value",
          "type": "uint256"
        }
      ],
      "name": "Transfer",
      "type": "event"
    },
    {
      "inputs": [],
      "name": "MIN_PURCHASE",
      "outputs": [
        {
          "internalType": "uint256",
          "name": "",
          "type": "uint256"
        }
      ],
      "stateMutability": "view",
      "type": "function"
    },
    {
      "inputs": [],
      "name": "TOKENS_PER_ETH",
      "outputs": [
        {
          "internalType": "uint256",
          "name": "",
          "type": "uint256"
        }
      ],
      "stateMutability": "view",
      "type": "function"
    },
    {
      "inputs": [
        {
          "internalType": "address",
          "name": "owner",
          "type": "address"
        },
        {
          "internalType": "address",
          "name": "spender",
          "type": "address"
        }
      ],
      "name": "allowance",
      "outputs": [
        {
          "internalType": "uint256",
          "name": "",
          "type": "uint256"
        }
      ],
      "stateMutability": "view",
      "type": "function"
    },
    {
      "inputs": [
        {
          "internalType": "address",
          "name": "spender",
          "type": "address"
        },
        {
          "internalType": "uint256",
          "name": "value",
          "type": "uint256"
        }
      ],
      "name": "approve",
      "outputs": [
        {
          "internalType": "bool",
          "name": "",
          "type": "bool"
        }
      ],
      "stateMutability": "nonpayable",
      "type": "function"
    },
    {
      "inputs": [
        {
          "internalType": "address",
          "name": "account",
          "type": "address"
        }
      ],
      "name": "balanceOf",
      "outputs": [
        {
          "internalType": "uint256",
          "name": "",
          "type": "uint256"
        }
      ],
      "stateMutability": "view",
      "type": "function"
    },
    {
      "inputs": [
        {
          "internalType": "uint256",
          "name": "amount",
          "type": "uint256"
        }
      ],
      "name": "burnTokens",
      "outputs": [],
      "stateMutability": "nonpayable",
      "type": "function"
    },
    {
      "inputs": [],
      "name": "buyTokens",
      "outputs": [],
      "stateMutability": "payable",
      "type": "function"
    },
    {
      "inputs": [],
      "name": "decimals",
      "outputs": [
        {
          "internalType": "uint8",
          "name": "",
          "type": "uint8"
        }
      ],
      "stateMutability": "view",
      "type": "function"
    },
    {
      "inputs": [],
      "name": "name",
      "outputs": [
        {
          "internalType": "string",
          "name": "",
          "type": "string"
        }
      ],
      "stateMutability": "view",
      "type": "function"
    },
    {
      "inputs": [],
      "name": "owner",
      "outputs": [
        {
          "internalType": "address",
          "name": "",
          "type": "address"
        }
      ],
      "stateMutability": "view",
      "type": "function"
    },
    {
      "inputs": [],
      "name": "symbol",
      "outputs": [
        {
          "internalType": "string",
          "name": "",
          "type": "string"
        }
      ],
      "stateMutability": "view",
      "type": "function"
    },
    {
      "inputs": [],
      "name": "totalSupply",
      "outputs": [
        {
          "internalType": "uint256",
          "name": "",
          "type": "uint256"
        }
      ],
      "stateMutability": "view",
      "type": "function"
    },
    {
      "inputs": [
        {
          "internalType": "address",
          "name": "to",
          "type": "address"
        },
        {
          "internalType": "uint256",
          "name": "value",
          "type": "uint256"
        }
      ],
      "name": "transfer",
      "outputs": [
        {
          "internalType": "bool",
          "name": "",
          "type": "bool"
        }
      ],
      "stateMutability": "nonpayable",
      "type": "function"
    },
    {
      "inputs": [
        {
          "internalType": "address",
          "name": "from",
          "type": "address"
        },
        {
          "internalType": "address",
          "name": "to",
          "type": "address"
        },
        {
          "internalType": "uint256",
          "name": "value",
          "type": "uint256"
        }
      ],
      "name": "transferFrom",
      "outputs": [
        {
          "internalType": "bool",
          "name": "",
          "type": "bool"
        }
      ],
      "stateMutability": "nonpayable",
      "type": "function"
    },
    {
      "inputs": [
        {
          "internalType": "address",
          "name": "newOwner",
          "type": "address"
        }
      ],
      "name": "transferOwnership",
      "outputs": [],
      "stateMutability": "nonpayable",
      "type": "function"
    },
    {
      "inputs": [],
      "name": "withdrawETH",
      "outputs": [],
      "stateMutability": "nonpayable",
      "type": "function"
    },
    {
      "stateMutability": "payable",
      "type": "receive"
    }
  ],
  "bytecode": "0x60806040523480156200001157600080fd5b506040518060400160405280600881526020017f4d6f6e546f6b656e0000000000000000000000000000000000000000000000008152506040518060400160405280600381526020017f4d544b000000000000000000000000000000000000000000000000000000000081525081600390816200008f919062000365565b508060049081620000a1919062000365565b50505033600560006101000a81548173ffffffffffffffffffffffffffffffffffffffff021916908373ffffffffffffffffffffffffffffffffffffffff1602179055506200044c565b600081519050919050565b7f4e487b7100000000000000000000000000000000000000000000000000000000600052604160045260246000fd5b7f4e487b7100000000000000000000000000000000000000000000000000000000600052602260045260246000fd5b600060028204905060018216806200016d57607f821691505b60208210810362000183576200018262000125565b5b50919050565b60008190508160005260206000209050919050565b60006020601f8301049050919050565b600082821b905092915050565b600060088302620001ed7fffffffffffffffffffffffffffffffffffffffffffffffffffffffffffffffff82620001ae565b620001f98683620001ae565b95508019841693508086168417925050509392505050565b6000819050919050565b6000819050919050565b600062000246620002406200023a8462000211565b6200021b565b62000211565b9050919050565b6000819050919050565b620002628362000225565b6200027a62000271826200024d565b848454620001bb565b825550505050565b600090565b6200029162000282565b6200029e81848462000257565b505050565b5b81811015620002c657620002ba60008262000287565b600181019050620002a4565b5050565b601f8211156200031557620002df8162000189565b620002ea846200019e565b81016020851015620002fa578190505b6200031262000309856200019e565b830182620002a3565b50505b505050565b600082821c905092915050565b60006200033a600019846008026200031a565b1980831691505092915050565b600062000355838362000327565b9150826002028217905092915050565b6200037082620000eb565b67ffffffffffffffff8111156200038c576200038b620000f6565b5b62000398825462000154565b620003a5828285620002ca565b600060209050601f831160018114620003dd5760008415620003c8578287015190505b620003d4858262000347565b86555062000444565b601f198416620003ed8662000189565b60005b828110156200041757848901518255600182019150602085019450602081019050620003f0565b8683101562000437578489015162000433601f89168262000327565b8355505b6001600288020188555050505b505050505050565b611b37806200045c6000396000f3fe6080604052600436106100f75760003560e01c806395d89b411161008a578063d439390c11610059578063d439390c14610334578063dd62ed3e1461035f578063e086e5ec1461039c578063f2fde38b146103b357610106565b806395d89b4114610297578063a9059cbb146102c2578063bc6e6604146102ff578063d0febe4c1461032a57610106565b8063313ce567116100c6578063313ce567146101db5780636d1b229d1461020657806370a082311461022f5780638da5cb5b1461026c57610106565b806306fdde031461010b578063095ea7b31461013657806318160ddd1461017357806323b872dd1461019e57610106565b36610106576101046103dc565b005b600080fd5b34801561011757600080fd5b506101206104ea565b60405161012d9190611255565b60405180910390f35b34801561014257600080fd5b5061015d60048036038101906101589190611310565b61057c565b60405161016a919061136b565b60405180910390f35b34801561017f57600080fd5b5061018861059f565b6040516101959190611395565b60405180910390f35b3480156101aa57600080fd5b506101c560048036038101906101c091906113b0565b6105a9565b6040516101d2919061136b565b60405180910390f35b3480156101e757600080fd5b506101f06105d8565b6040516101fd919061141f565b60405180910390f35b34801561021257600080fd5b5061022d6004803603810190610228919061143a565b6105e1565b005b34801561023b57600080fd5b5061025660048036038101906102519190611467565b61067c565b6040516102639190611395565b60405180910390f35b34801561027857600080fd5b506102816106c4565b60405161028e91906114a3565b60405180910390f35b3480156102a357600080fd5b506102ac6106ea565b6040516102b99190611255565b60405180910390f35b3480156102ce57600080fd5b506102e960048036038101906102e49190611310565b61077c565b6040516102f6919061136b565b60405180910390f35b34801561030b57600080fd5b5061031461079f565b6040516103219190611395565b60405180910390f35b6103326103dc565b005b34801561034057600080fd5b506103496107a4565b6040516103569190611395565b60405180910390f35b34801561036b57600080fd5b50610386600480360381019061038191906114be565b6107af565b6040516103939190611395565b60405180910390f35b3480156103a857600080fd5b506103b1610836565b005b3480156103bf57600080fd5b506103da60048036038101906103d59190611467565b6109e0565b005b662386f26fc10000341015610426576040517f08c379a000000000000000000000000000000000000000000000000000000000815260040161041d90611570565b60405180910390fd5b6000670de0b6b3a764000060643461043e91906115bf565b6104489190611630565b90506000811161048d576040517f08c379a0000000000000000000000000000000000000000000000000000000008152600401610484906116d3565b60405180910390fd5b6104973382610b23565b3373ffffffffffffffffffffffffffffffffffffffff167f8fafebcaf9d154343dad25669bfa277f4fbacd7ac6b0c4fed522580e040a0f3334836040516104df9291906116f3565b60405180910390a250565b6060600380546104f99061174b565b80601f01602080910402602001604051908101604052809291908181526020018280546105259061174b565b80156105725780601f1061054757610100808354040283529160200191610572565b820191906000526020600020905b81548152906001019060200180831161055557829003601f168201915b5050505050905090565b600080610587610ba5565b9050610594818585610bad565b600191505092915050565b6000600254905090565b6000806105b4610ba5565b90506105c1858285610bbf565b6105cc858585610c53565b60019150509392505050565b60006012905090565b60008111610624576040517f08c379a000000000000000000000000000000000000000000000000000000000815260040161061b906117c8565b60405180910390fd5b8061062e3361067c565b101561066f576040517f08c379a000000000000000000000000000000000000000000000000000000000815260040161066690611834565b60405180910390fd5b6106793382610d47565b50565b60008060008373ffffffffffffffffffffffffffffffffffffffff1673ffffffffffffffffffffffffffffffffffffffff168152602001908152602001600020549050919050565b600560009054906101000a900473ffffffffffffffffffffffffffffffffffffffff1681565b6060600480546106f99061174b565b80601f01602080910402602001604051908101604052809291908181526020018280546107259061174b565b80156107725780601f1061074757610100808354040283529160200191610772565b820191906000526020600020905b81548152906001019060200180831161075557829003601f168201915b5050505050905090565b600080610787610ba5565b9050610794818585610c53565b600191505092915050565b606481565b662386f26fc1000081565b6000600160008473ffffffffffffffffffffffffffffffffffffffff1673ffffffffffffffffffffffffffffffffffffffff16815260200190815260200160002060008373ffffffffffffffffffffffffffffffffffffffff1673ffffffffffffffffffffffffffffffffffffffff16815260200190815260200160002054905092915050565b600560009054906101000a900473ffffffffffffffffffffffffffffffffffffffff1673ffffffffffffffffffffffffffffffffffffffff163373ffffffffffffffffffffffffffffffffffffffff16146108c6576040517f08c379a00000000000000000000000000000000000000000000000000000000081526004016108bd906118c6565b60405180910390fd5b60004790506000811161090e576040517f08c379a000000000000000000000000000000000000000000000000000000000815260040161090590611932565b60405180910390fd5b6000600560009054906101000a900473ffffffffffffffffffffffffffffffffffffffff1673ffffffffffffffffffffffffffffffffffffffff168260405161095690611983565b60006040518083038185875af1925050503d8060008114610993576040519150601f19603f3d011682016040523d82523d6000602084013e610998565b606091505b50509050806109dc576040517f08c379a00000000000000000000000000000000000000000000000000000000081526004016109d3906119e4565b60405180910390fd5b5050565b600560009054906101000a900473ffffffffffffffffffffffffffffffffffffffff1673ffffffffffffffffffffffffffffffffffffffff163373ffffffffffffffffffffffffffffffffffffffff1614610a70576040517f08c379a0000000000000000000000000000000000000000000000000000000008152600401610a67906118c6565b60405180910390fd5b600073ffffffffffffffffffffffffffffffffffffffff168173ffffffffffffffffffffffffffffffffffffffff1603610adf576040517f08c379a0000000000000000000000000000000000000000000000000000000008152600401610ad690611a76565b60405180910390fd5b80600560006101000a81548173ffffffffffffffffffffffffffffffffffffffff021916908373ffffffffffffffffffffffffffffffffffffffff16021790555050565b600073ffffffffffffffffffffffffffffffffffffffff168273ffffffffffffffffffffffffffffffffffffffff1603610b955760006040517fec442f05000000000000000000000000000000000000000000000000000000008152600401610b8c91906114a3565b60405180910390fd5b610ba160008383610dc9565b5050565b600033905090565b610bba8383836001610fee565b505050565b6000610bcb84846107af565b90507fffffffffffffffffffffffffffffffffffffffffffffffffffffffffffffffff8114610c4d5781811015610c3d578281836040517ffb8f41b2000000000000000000000000000000000000000000000000000000008152600401610c3493929190611a96565b60405180910390fd5b610c4c84848484036000610fee565b5b50505050565b600073ffffffffffffffffffffffffffffffffffffffff168373ffffffffffffffffffffffffffffffffffffffff1603610cc55760006040517f96c6fd1e000000000000000000000000000000000000000000000000000000008152600401610cbc91906114a3565b60405180910390fd5b600073ffffffffffffffffffffffffffffffffffffffff168273ffffffffffffffffffffffffffffffffffffffff1603610d375760006040517fec442f05000000000000000000000000000000000000000000000000000000008152600401610d2e91906114a3565b60405180910390fd5b610d42838383610dc9565b505050565b600073ffffffffffffffffffffffffffffffffffffffff168273ffffffffffffffffffffffffffffffffffffffff1603610db95760006040517f96c6fd1e000000000000000000000000000000000000000000000000000000008152600401610db091906114a3565b60405180910390fd5b610dc582600083610dc9565b5050565b600073ffffffffffffffffffffffffffffffffffffffff168373ffffffffffffffffffffffffffffffffffffffff1603610e1b578060026000828254610e0f9190611acd565b92505081905550610eee565b60008060008573ffffffffffffffffffffffffffffffffffffffff1673ffffffffffffffffffffffffffffffffffffffff16815260200190815260200160002054905081811015610ea7578381836040517fe450d38c000000000000000000000000000000000000000000000000000000008152600401610e9e93929190611a96565b60405180910390fd5b8181036000808673ffffffffffffffffffffffffffffffffffffffff1673ffffffffffffffffffffffffffffffffffffffff16815260200190815260200160002081905550505b600073ffffffffffffffffffffffffffffffffffffffff168273ffffffffffffffffffffffffffffffffffffffff1603610f375780600260008282540392505081905550610f84565b806000808473ffffffffffffffffffffffffffffffffffffffff1673ffffffffffffffffffffffffffffffffffffffff168152602001908152602001600020600082825401925050819055505b8173ffffffffffffffffffffffffffffffffffffffff168373ffffffffffffffffffffffffffffffffffffffff167fddf252ad1be2c89b69c2b068fc378daa952ba7f163c4a11628f55a4df523b3ef83604051610fe19190611395565b60405180910390a3505050565b600073ffffffffffffffffffffffffffffffffffffffff168473ffffffffffffffffffffffffffffffffffffffff16036110605760006040517fe602df0500000000000000000000000000000000000000000000000000000000815260040161105791906114a3565b60405180910390fd5b600073ffffffffffffffffffffffffffffffffffffffff168373ffffffffffffffffffffffffffffffffffffffff16036110d25760006040517f94280d620000000000000000000000000000000000000000000000000000000081526004016110c991906114a3565b60405180910390fd5b81600160008673ffffffffffffffffffffffffffffffffffffffff1673ffffffffffffffffffffffffffffffffffffffff16815260200190815260200160002060008573ffffffffffffffffffffffffffffffffffffffff1673ffffffffffffffffffffffffffffffffffffffff1681526020019081526020016000208190555080156111bf578273ffffffffffffffffffffffffffffffffffffffff168473ffffffffffffffffffffffffffffffffffffffff167f8c5be1e5ebec7d5bd14f71427d1e84f3dd0314c0f7b2291e5b200ac8c7c3b925846040516111b69190611395565b60405180910390a35b50505050565b600081519050919050565b600082825260208201905092915050565b60005b838110156111ff5780820151818401526020810190506111e4565b60008484015250505050565b6000601f19601f8301169050919050565b6000611227826111c5565b61123181856111d0565b93506112418185602086016111e1565b61124a8161120b565b840191505092915050565b6000602082019050818103600083015261126f818461121c565b905092915050565b600080fd5b600073ffffffffffffffffffffffffffffffffffffffff82169050919050565b60006112a78261127c565b9050919050565b6112b78161129c565b81146112c257600080fd5b50565b6000813590506112d4816112ae565b92915050565b6000819050919050565b6112ed816112da565b81146112f857600080fd5b50565b60008135905061130a816112e4565b92915050565b6000806040838503121561132757611326611277565b5b6000611335858286016112c5565b9250506020611346858286016112fb565b9150509250929050565b60008115159050919050565b61136581611350565b82525050565b6000602082019050611380600083018461135c565b92915050565b61138f816112da565b82525050565b60006020820190506113aa6000830184611386565b92915050565b6000806000606084860312156113c9576113c8611277565b5b60006113d7868287016112c5565b93505060206113e8868287016112c5565b92505060406113f9868287016112fb565b9150509250925092565b600060ff82169050919050565b61141981611403565b82525050565b60006020820190506114346000830184611410565b92915050565b6000602082840312156114505761144f611277565b5b600061145e848285016112fb565b91505092915050565b60006020828403121561147d5761147c611277565b5b600061148b848285016112c5565b91505092915050565b61149d8161129c565b82525050565b60006020820190506114b86000830184611494565b92915050565b600080604083850312156114d5576114d4611277565b5b60006114e3858286016112c5565b92505060206114f4858286016112c5565b9150509250929050565b7f53656e64206174206c6561737420302e30312045544820746f2062757920746f60008201527f6b656e7300000000000000000000000000000000000000000000000000000000602082015250565b600061155a6024836111d0565b9150611565826114fe565b604082019050919050565b600060208201905081810360008301526115898161154d565b9050919050565b7f4e487b7100000000000000000000000000000000000000000000000000000000600052601160045260246000fd5b60006115ca826112da565b91506115d5836112da565b92508282026115e3816112da565b915082820484148315176115fa576115f9611590565b5b5092915050565b7f4e487b7100000000000000000000000000000000000000000000000000000000600052601260045260246000fd5b600061163b826112da565b9150611646836112da565b92508261165657611655611601565b5b828204905092915050565b7f4e6f7420656e6f756768204554482073656e7420746f2062757920616e79207460008201527f6f6b656e73000000000000000000000000000000000000000000000000000000602082015250565b60006116bd6025836111d0565b91506116c882611661565b604082019050919050565b600060208201905081810360008301526116ec816116b0565b9050919050565b60006040820190506117086000830185611386565b6117156020830184611386565b9392505050565b7f4e487b7100000000000000000000000000000000000000000000000000000000600052602260045260246000fd5b6000600282049050600182168061176357607f821691505b6020821081036117765761177561171c565b5b50919050565b7f416d6f756e74206d7573742062652067726561746572207468616e2030000000600082015250565b60006117b2601d836111d0565b91506117bd8261177c565b602082019050919050565b600060208201905081810360008301526117e1816117a5565b9050919050565b7f496e73756666696369656e742062616c616e636520746f206275726e00000000600082015250565b600061181e601c836111d0565b9150611829826117e8565b602082019050919050565b6000602082019050818103600083015261184d81611811565b9050919050565b7f4f6e6c7920746865206f776e65722063616e2063616c6c20746869732066756e60008201527f6374696f6e000000000000000000000000000000000000000000000000000000602082015250565b60006118b06025836111d0565b91506118bb82611854565b604082019050919050565b600060208201905081810360008301526118df816118a3565b9050919050565b7f4e6f2045544820746f2077697468647261770000000000000000000000000000600082015250565b600061191c6012836111d0565b9150611927826118e6565b602082019050919050565b6000602082019050818103600083015261194b8161190f565b9050919050565b600081905092915050565b50565b600061196d600083611952565b91506119788261195d565b600082019050919050565b600061198e82611960565b9150819050919050565b7f5472616e73666572206661696c65640000000000000000000000000000000000600082015250565b60006119ce600f836111d0565b91506119d982611998565b602082019050919050565b600060208201905081810360008301526119fd816119c1565b9050919050565b7f4e6577206f776e65722063616e6e6f7420626520746865207a65726f2061646460008201527f7265737300000000000000000000000000000000000000000000000000000000602082015250565b6000611a606024836111d0565b9150611a6b82611a04565b604082019050919050565b60006020820190508181036000830152611a8f81611a53565b9050919050565b6000606082019050611aab6000830186611494565b611ab86020830185611386565b611ac56040830184611386565b949350505050565b6000611ad8826112da565b9150611ae3836112da565b9250828201905080821115611afb57611afa611590565b5b9291505056fea26469706673582212206802a89b66d9e94db1a2651cb639ef2adfd8d0d5a73cbb2d5c3c888d3e8eda3c64736f6c63430008140033",
  "linkReferences": {},
  "deployedLinkReferences": {}
}